{
  "contractName": "Bet",
  "abi": [
    {
      "constant": true,
      "inputs": [
        {
          "name": "",
          "type": "uint256"
        }
      ],
      "name": "matches",
      "outputs": [
        {
          "components": [
            {
              "name": "name",
              "type": "string"
            },
            {
              "name": "votes",
              "type": "uint256"
            }
          ],
          "name": "team1",
          "type": "tuple"
        },
        {
          "components": [
            {
              "name": "name",
              "type": "string"
            },
            {
              "name": "votes",
              "type": "uint256"
            }
          ],
          "name": "team2",
          "type": "tuple"
        },
        {
          "name": "name",
          "type": "string"
        }
      ],
      "payable": false,
      "stateMutability": "view",
      "type": "function"
    },
    {
      "constant": true,
      "inputs": [],
      "name": "getMatchCount",
      "outputs": [
        {
          "name": "",
          "type": "uint256"
        }
      ],
      "payable": false,
      "stateMutability": "view",
      "type": "function"
    },
    {
      "constant": false,
      "inputs": [
        {
          "name": "_matchName",
          "type": "string"
        },
        {
          "name": "_team1",
          "type": "string"
        },
        {
          "name": "_team2",
          "type": "string"
        }
      ],
      "name": "addMatch",
      "outputs": [],
      "payable": false,
      "stateMutability": "nonpayable",
      "type": "function"
    },
    {
      "constant": true,
      "inputs": [
        {
          "name": "_indexId",
          "type": "uint256"
        }
      ],
      "name": "getMatch",
      "outputs": [
        {
          "name": "name",
          "type": "string"
        },
        {
          "name": "team1",
          "type": "string"
        },
        {
          "name": "team2",
          "type": "string"
        },
        {
          "name": "team1Votes",
          "type": "uint256"
        },
        {
          "name": "team2Votes",
          "type": "uint256"
        }
      ],
      "payable": false,
      "stateMutability": "view",
      "type": "function"
    },
    {
      "constant": false,
      "inputs": [
        {
          "name": "_indexId",
          "type": "uint256"
        },
        {
          "name": "_teamName",
          "type": "string"
        }
      ],
      "name": "placeBet",
      "outputs": [],
      "payable": false,
      "stateMutability": "nonpayable",
      "type": "function"
    }
  ],
  "bytecode": "0x608060405234801561001057600080fd5b50610c9a806100206000396000f30060806040526004361061006d576000357c0100000000000000000000000000000000000000000000000000000000900463ffffffff16806321bfefce146100725780633d092b3d146101675780634768d4ef146102f35780635e8af735146103a75780638c4f7dae1461041a575b600080fd5b34801561007e57600080fd5b50610165600480360381019080803590602001908201803590602001908080601f0160208091040260200160405190810160405280939291908181526020018383808284378201915050505050509192919290803590602001908201803590602001908080601f0160208091040260200160405190810160405280939291908181526020018383808284378201915050505050509192919290803590602001908201803590602001908080601f0160208091040260200160405190810160405280939291908181526020018383808284378201915050505050509192919290505050610445565b005b34801561017357600080fd5b5061019260048036038101908080359060200190929190505050610541565b60405180806020018060200180602001868152602001858152602001848103845289818151815260200191508051906020019080838360005b838110156101e65780820151818401526020810190506101cb565b50505050905090810190601f1680156102135780820380516001836020036101000a031916815260200191505b50848103835288818151815260200191508051906020019080838360005b8381101561024c578082015181840152602081019050610231565b50505050905090810190601f1680156102795780820380516001836020036101000a031916815260200191505b50848103825287818151815260200191508051906020019080838360005b838110156102b2578082015181840152602081019050610297565b50505050905090810190601f1680156102df5780820380516001836020036101000a031916815260200191505b509850505050505050505060405180910390f35b3480156102ff57600080fd5b5061031e600480360381019080803590602001909291905050506107de565b6040518084815260200183815260200180602001828103825283818151815260200191508051906020019080838360005b8381101561036a57808201518184015260208101905061034f565b50505050905090810190601f1680156103975780820380516001836020036101000a031916815260200191505b5094505050505060405180910390f35b3480156103b357600080fd5b5061041860048036038101908080359060200190929190803590602001908201803590602001908080601f0160208091040260200160405190810160405280939291908181526020018383808284378201915050505050509192919290505050610a1b565b005b34801561042657600080fd5b5061042f610bbd565b6040518082815260200191505060405180910390f35b6000606060405190810160405280604080519081016040528086815260200160008152508152602001604080519081016040528085815260200160008152508152602001858152509080600181540180825580915050906001820390600052602060002090600502016000909192909190915060008201518160000160008201518160000190805190602001906104dd929190610bc9565b50602082015181600101555050602082015181600201600082015181600001908051906020019061050f929190610bc9565b506020820151816001015550506040820151816004019080519060200190610538929190610bc9565b50505050505050565b606080606060008060008681548110151561055857fe5b906000526020600020906005020160040160008781548110151561057857fe5b906000526020600020906005020160000160000160008881548110151561059b57fe5b90600052602060002090600502016002016000016000898154811015156105be57fe5b90600052602060002090600502016000016001015460008a8154811015156105e257fe5b906000526020600020906005020160020160010154848054600181600116156101000203166002900480601f01602080910402602001604051908101604052809291908181526020018280546001816001161561010002031660029004801561068c5780601f106106615761010080835404028352916020019161068c565b820191906000526020600020905b81548152906001019060200180831161066f57829003601f168201915b50505050509450838054600181600116156101000203166002900480601f0160208091040260200160405190810160405280929190818152602001828054600181600116156101000203166002900480156107285780601f106106fd57610100808354040283529160200191610728565b820191906000526020600020905b81548152906001019060200180831161070b57829003601f168201915b50505050509350828054600181600116156101000203166002900480601f0160208091040260200160405190810160405280929190818152602001828054600181600116156101000203166002900480156107c45780601f10610799576101008083540402835291602001916107c4565b820191906000526020600020905b8154815290600101906020018083116107a757829003601f168201915b505050505092509450945094509450945091939590929450565b6000818154811015156107ed57fe5b906000526020600020906005020160009150905080600001604080519081016040529081600082018054600181600116156101000203166002900480601f0160208091040260200160405190810160405280929190818152602001828054600181600116156101000203166002900480156108a95780601f1061087e576101008083540402835291602001916108a9565b820191906000526020600020905b81548152906001019060200180831161088c57829003601f168201915b505050505081526020016001820154815250509080600201604080519081016040529081600082018054600181600116156101000203166002900480601f0160208091040260200160405190810160405280929190818152602001828054600181600116156101000203166002900480156109655780601f1061093a57610100808354040283529160200191610965565b820191906000526020600020905b81548152906001019060200180831161094857829003601f168201915b5050505050815260200160018201548152505090806004018054600181600116156101000203166002900480601f016020809104026020016040519081016040528092919081815260200182805460018160011615610100020316600290048015610a115780601f106109e657610100808354040283529160200191610a11565b820191906000526020600020905b8154815290600101906020018083116109f457829003601f168201915b5050505050905083565b806040518082805190602001908083835b602083101515610a515780518252602082019150602081019050602083039250610a2c565b6001836020036101000a038019825116818451168082178552505050505050905001915050604051809103902060001916600083815481101515610a9157fe5b90600052602060002090600502016000016000016040518082805460018160011615610100020316600290048015610b005780601f10610ade576101008083540402835291820191610b00565b820191906000526020600020905b815481529060010190602001808311610aec575b50509150506040518091039020600019161415610b6a576001600083815481101515610b2857fe5b90600052602060002090600502016000016001015401600083815481101515610b4d57fe5b906000526020600020906005020160000160010181905550610bb9565b6001600083815481101515610b7b57fe5b90600052602060002090600502016002016001015401600083815481101515610ba057fe5b9060005260206000209060050201600201600101819055505b5050565b60008080549050905090565b828054600181600116156101000203166002900490600052602060002090601f016020900481019282601f10610c0a57805160ff1916838001178555610c38565b82800160010185558215610c38579182015b82811115610c37578251825591602001919060010190610c1c565b5b509050610c459190610c49565b5090565b610c6b91905b80821115610c67576000816000905550600101610c4f565b5090565b905600a165627a7a723058208627a8fe810a0f4e8d8ead5353cfc48d59cf75d823585007d3c0a410eb2f58c90029",
  "source": "pragma solidity ^0.4.24;\n\ncontract Bet {\n\n  struct Team {\n    string name;\n    uint votes;\n  }\n\n  struct Match {\n      Team team1;\n      Team team2;\n      string name;\n  }\n\n  Match[] public matches;\n\n  function getMatchCount() public constant returns(uint) {\n    return matches.length;\n  }\n\n  function addMatch(string _matchName,string _team1, string _team2) public {\n    matches.push(Match(Team(_team1,0), Team(_team2,0), _matchName));\n  }\n\n  function getMatch(uint _indexId) public view returns(string name, string team1, string team2, uint team1Votes, uint team2Votes) {\n    return (matches[_indexId].name, \n      matches[_indexId].team1.name, \n      matches[_indexId].team2.name, \n      matches[_indexId].team1.votes, \n      matches[_indexId].team2.votes);\n  }\n\n  function placeBet(uint _indexId, string _teamName) public {\n    if (keccak256(bytes(matches[_indexId].team1.name)) == keccak256(bytes(_teamName))) {\n        matches[_indexId].team1.votes = matches[_indexId].team1.votes + 1;\n        return; \n    }\n    matches[_indexId].team2.votes = matches[_indexId].team2.votes + 1;\n    return;\n  }\n\n}\n",
  "sourcePath": "/home/athulnath/workspace/blockchain/todo-list-dapp/contracts/Bet.sol",
  "compiler": {
    "name": "solc",
    "version": "0.4.24+commit.e67f0147.Emscripten.clang"
  },
  "schemaVersion": "2.0.1",
  "updatedAt": "2018-09-25T20:09:57.098Z"
}