{
  "contractName": "Bet",
  "abi": [
    {
      "constant": true,
      "inputs": [
        {
          "name": "",
          "type": "uint256"
        }
      ],
      "name": "matches",
      "outputs": [
        {
          "components": [
            {
              "name": "name",
              "type": "string"
            },
            {
              "name": "votes",
              "type": "uint256"
            }
          ],
          "name": "team1",
          "type": "tuple"
        },
        {
          "components": [
            {
              "name": "name",
              "type": "string"
            },
            {
              "name": "votes",
              "type": "uint256"
            }
          ],
          "name": "team2",
          "type": "tuple"
        },
        {
          "name": "name",
          "type": "string"
        }
      ],
      "payable": false,
      "stateMutability": "view",
      "type": "function"
    },
    {
      "constant": false,
      "inputs": [
        {
          "name": "_matchName",
          "type": "string"
        },
        {
          "name": "_team1",
          "type": "string"
        },
        {
          "name": "_team2",
          "type": "string"
        }
      ],
      "name": "addMatch",
      "outputs": [],
      "payable": false,
      "stateMutability": "nonpayable",
      "type": "function"
    }
  ],
  "bytecode": "0x608060405234801561001057600080fd5b50610604806100206000396000f30060806040526004361061004c576000357c0100000000000000000000000000000000000000000000000000000000900463ffffffff16806321bfefce146100515780634768d4ef14610146575b600080fd5b34801561005d57600080fd5b50610144600480360381019080803590602001908201803590602001908080601f0160208091040260200160405190810160405280939291908181526020018383808284378201915050505050509192919290803590602001908201803590602001908080601f0160208091040260200160405190810160405280939291908181526020018383808284378201915050505050509192919290803590602001908201803590602001908080601f01602080910402602001604051908101604052809392919081815260200183838082843782019150505050505091929192905050506101fa565b005b34801561015257600080fd5b50610171600480360381019080803590602001909291905050506102f6565b6040518084815260200183815260200180602001828103825283818151815260200191508051906020019080838360005b838110156101bd5780820151818401526020810190506101a2565b50505050905090810190601f1680156101ea5780820380516001836020036101000a031916815260200191505b5094505050505060405180910390f35b600060606040519081016040528060408051908101604052808681526020016000815250815260200160408051908101604052808581526020016000815250815260200185815250908060018154018082558091505090600182039060005260206000209060050201600090919290919091506000820151816000016000820151816000019080519060200190610292929190610533565b5060208201518160010155505060208201518160020160008201518160000190805190602001906102c4929190610533565b5060208201518160010155505060408201518160040190805190602001906102ed929190610533565b50505050505050565b60008181548110151561030557fe5b906000526020600020906005020160009150905080600001604080519081016040529081600082018054600181600116156101000203166002900480601f0160208091040260200160405190810160405280929190818152602001828054600181600116156101000203166002900480156103c15780601f10610396576101008083540402835291602001916103c1565b820191906000526020600020905b8154815290600101906020018083116103a457829003601f168201915b505050505081526020016001820154815250509080600201604080519081016040529081600082018054600181600116156101000203166002900480601f01602080910402602001604051908101604052809291908181526020018280546001816001161561010002031660029004801561047d5780601f106104525761010080835404028352916020019161047d565b820191906000526020600020905b81548152906001019060200180831161046057829003601f168201915b5050505050815260200160018201548152505090806004018054600181600116156101000203166002900480601f0160208091040260200160405190810160405280929190818152602001828054600181600116156101000203166002900480156105295780601f106104fe57610100808354040283529160200191610529565b820191906000526020600020905b81548152906001019060200180831161050c57829003601f168201915b5050505050905083565b828054600181600116156101000203166002900490600052602060002090601f016020900481019282601f1061057457805160ff19168380011785556105a2565b828001600101855582156105a2579182015b828111156105a1578251825591602001919060010190610586565b5b5090506105af91906105b3565b5090565b6105d591905b808211156105d15760008160009055506001016105b9565b5090565b905600a165627a7a723058209205f1af4ae99b4d7f4bd4d8af0e20c158312f1c25b0d880930aad9cdaf3f7d50029",
  "source": "pragma solidity ^0.4.24;\n\ncontract Bet {\n\n  struct Team {\n    string name;\n    uint votes;\n  }\n\n  struct Match {\n      Team team1;\n      Team team2;\n      string name;\n  }\n\n  Match[] public matches;\n\n  function addMatch(string _matchName,string _team1, string _team2) public {\n    matches.push(Match(Team(_team1,0), Team(_team2,0), _matchName));\n  }\n\n}\n",
  "sourcePath": "/home/athulnath/workspace/blockchain/todo-list-dapp/contracts/Bet.sol",
  "compiler": {
    "name": "solc",
    "version": "0.4.24+commit.e67f0147.Emscripten.clang"
  },
  "schemaVersion": "2.0.1",
  "updatedAt": "2018-09-13T16:48:48.026Z"
}