{
  "contractName": "BidderFactory",
  "abi": [
    {
      "constant": true,
      "inputs": [
        {
          "name": "",
          "type": "address"
        }
      ],
      "name": "userToCoin",
      "outputs": [
        {
          "name": "",
          "type": "uint256"
        }
      ],
      "payable": false,
      "stateMutability": "view",
      "type": "function"
    },
    {
      "constant": true,
      "inputs": [
        {
          "name": "",
          "type": "uint256"
        }
      ],
      "name": "bids",
      "outputs": [
        {
          "name": "amount",
          "type": "uint256"
        },
        {
          "name": "saleId",
          "type": "uint256"
        },
        {
          "name": "bidder",
          "type": "address"
        },
        {
          "name": "timestamp",
          "type": "uint256"
        },
        {
          "name": "exists",
          "type": "bool"
        }
      ],
      "payable": false,
      "stateMutability": "view",
      "type": "function"
    },
    {
      "constant": true,
      "inputs": [],
      "name": "owner",
      "outputs": [
        {
          "name": "",
          "type": "address"
        }
      ],
      "payable": false,
      "stateMutability": "view",
      "type": "function"
    },
    {
      "constant": false,
      "inputs": [
        {
          "name": "newOwner",
          "type": "address"
        }
      ],
      "name": "transferOwnership",
      "outputs": [],
      "payable": false,
      "stateMutability": "nonpayable",
      "type": "function"
    },
    {
      "anonymous": false,
      "inputs": [
        {
          "indexed": true,
          "name": "previousOwner",
          "type": "address"
        },
        {
          "indexed": true,
          "name": "newOwner",
          "type": "address"
        }
      ],
      "name": "OwnershipTransferred",
      "type": "event"
    },
    {
      "constant": true,
      "inputs": [],
      "name": "getMyCoin",
      "outputs": [
        {
          "name": "",
          "type": "uint256"
        }
      ],
      "payable": false,
      "stateMutability": "view",
      "type": "function"
    },
    {
      "constant": false,
      "inputs": [
        {
          "name": "_fee",
          "type": "uint256"
        }
      ],
      "name": "setPowerCoinFee",
      "outputs": [],
      "payable": false,
      "stateMutability": "nonpayable",
      "type": "function"
    },
    {
      "constant": false,
      "inputs": [
        {
          "name": "_saleId",
          "type": "uint256"
        },
        {
          "name": "_amount",
          "type": "uint256"
        }
      ],
      "name": "placeBid",
      "outputs": [],
      "payable": false,
      "stateMutability": "nonpayable",
      "type": "function"
    },
    {
      "constant": false,
      "inputs": [],
      "name": "withdraw",
      "outputs": [],
      "payable": false,
      "stateMutability": "nonpayable",
      "type": "function"
    },
    {
      "constant": false,
      "inputs": [
        {
          "name": "_coinCount",
          "type": "uint256"
        }
      ],
      "name": "buyCoin",
      "outputs": [],
      "payable": true,
      "stateMutability": "payable",
      "type": "function"
    },
    {
      "constant": true,
      "inputs": [
        {
          "name": "_indexId",
          "type": "uint256"
        }
      ],
      "name": "getBidById",
      "outputs": [
        {
          "name": "coins",
          "type": "uint256"
        },
        {
          "name": "bidder",
          "type": "address"
        },
        {
          "name": "time",
          "type": "uint256"
        }
      ],
      "payable": false,
      "stateMutability": "view",
      "type": "function"
    },
    {
      "constant": true,
      "inputs": [
        {
          "name": "_saleId",
          "type": "uint256"
        }
      ],
      "name": "getBidsBySales",
      "outputs": [
        {
          "name": "",
          "type": "uint256[]"
        }
      ],
      "payable": false,
      "stateMutability": "view",
      "type": "function"
    }
  ],
  "bytecode": "0x60806040526509184e72a000600355336000806101000a81548173ffffffffffffffffffffffffffffffffffffffff021916908373ffffffffffffffffffffffffffffffffffffffff1602179055506109f48061005d6000396000f3006080604052600436106100af576000357c0100000000000000000000000000000000000000000000000000000000900463ffffffff16806318a4065a146100b45780631e45fa7f1461010b5780632a51fdd3146101385780633ccfd60b146101ba5780634423c5f1146101d15780634593e2231461025e57806357c90de51461028957806386106131146102c0578063877925741461033b5780638da5cb5b1461035b578063f2fde38b146103b2575b600080fd5b3480156100c057600080fd5b506100f5600480360381019080803573ffffffffffffffffffffffffffffffffffffffff1690602001909291905050506103f5565b6040518082815260200191505060405180910390f35b34801561011757600080fd5b506101366004803603810190808035906020019092919050505061040d565b005b34801561014457600080fd5b5061016360048036038101908080359060200190929190505050610417565b6040518080602001828103825283818151815260200191508051906020019060200280838360005b838110156101a657808201518184015260208101905061018b565b505050509050019250505060405180910390f35b3480156101c657600080fd5b506101cf6104de565b005b3480156101dd57600080fd5b506101fc600480360381019080803590602001909291905050506105ba565b604051808681526020018581526020018473ffffffffffffffffffffffffffffffffffffffff1673ffffffffffffffffffffffffffffffffffffffff168152602001838152602001821515151581526020019550505050505060405180910390f35b34801561026a57600080fd5b5061027361062c565b6040518082815260200191505060405180910390f35b34801561029557600080fd5b506102be6004803603810190808035906020019092919080359060200190929190505050610673565b005b3480156102cc57600080fd5b506102eb6004803603810190808035906020019092919050505061071f565b604051808481526020018373ffffffffffffffffffffffffffffffffffffffff1673ffffffffffffffffffffffffffffffffffffffff168152602001828152602001935050505060405180910390f35b610359600480360381019080803590602001909291905050506107b4565b005b34801561036757600080fd5b5061037061084e565b604051808273ffffffffffffffffffffffffffffffffffffffff1673ffffffffffffffffffffffffffffffffffffffff16815260200191505060405180910390f35b3480156103be57600080fd5b506103f3600480360381019080803573ffffffffffffffffffffffffffffffffffffffff169060200190929190505050610873565b005b60026020528060005260406000206000915090505481565b8060038190555050565b606080600080600160008681526020019081526020016000205460405190808252806020026020018201604052801561045f5781602001602082028038833980820191505090505b50925060009150600090505b6004805490508110156104d3578460048281548110151561048857fe5b90600052602060002090600502016001015414156104c6578083838151811015156104af57fe5b906020019060200201818152505081806001019250505b808060010191505061046b565b829350505050919050565b6000809054906101000a900473ffffffffffffffffffffffffffffffffffffffff1673ffffffffffffffffffffffffffffffffffffffff163373ffffffffffffffffffffffffffffffffffffffff1614151561053957600080fd5b6000809054906101000a900473ffffffffffffffffffffffffffffffffffffffff1673ffffffffffffffffffffffffffffffffffffffff166108fc3073ffffffffffffffffffffffffffffffffffffffff16319081150290604051600060405180830381858888f193505050501580156105b7573d6000803e3d6000fd5b50565b6004818154811015156105c957fe5b90600052602060002090600502016000915090508060000154908060010154908060020160009054906101000a900473ffffffffffffffffffffffffffffffffffffffff16908060030154908060040160009054906101000a900460ff16905085565b6000600260003373ffffffffffffffffffffffffffffffffffffffff1673ffffffffffffffffffffffffffffffffffffffff16815260200190815260200160002054905090565b600160008381526020019081526020016000206000815480929190600101919050555080600260003373ffffffffffffffffffffffffffffffffffffffff1673ffffffffffffffffffffffffffffffffffffffff1681526020019081526020016000205403600260003373ffffffffffffffffffffffffffffffffffffffff1673ffffffffffffffffffffffffffffffffffffffff168152602001908152602001600020819055505050565b600080600060048481548110151561073357fe5b90600052602060002090600502016000015460048581548110151561075457fe5b906000526020600020906005020160020160009054906101000a900473ffffffffffffffffffffffffffffffffffffffff1660048681548110151561079557fe5b9060005260206000209060050201600301549250925092509193909250565b6003548102341415156107c657600080fd5b80600260003373ffffffffffffffffffffffffffffffffffffffff1673ffffffffffffffffffffffffffffffffffffffff1681526020019081526020016000205401600260003373ffffffffffffffffffffffffffffffffffffffff1673ffffffffffffffffffffffffffffffffffffffff1681526020019081526020016000208190555050565b6000809054906101000a900473ffffffffffffffffffffffffffffffffffffffff1681565b6000809054906101000a900473ffffffffffffffffffffffffffffffffffffffff1673ffffffffffffffffffffffffffffffffffffffff163373ffffffffffffffffffffffffffffffffffffffff161415156108ce57600080fd5b600073ffffffffffffffffffffffffffffffffffffffff168173ffffffffffffffffffffffffffffffffffffffff161415151561090a57600080fd5b8073ffffffffffffffffffffffffffffffffffffffff166000809054906101000a900473ffffffffffffffffffffffffffffffffffffffff1673ffffffffffffffffffffffffffffffffffffffff167f8be0079c531659141344cd1fd0a4f28419497f9722a3daafe3b4186f6b6457e060405160405180910390a3806000806101000a81548173ffffffffffffffffffffffffffffffffffffffff021916908373ffffffffffffffffffffffffffffffffffffffff160217905550505600a165627a7a72305820254b308f48ebc91655a1fbe6dbf89acec6dcf409a4848292d567754bd6ead3d70029",
  "source": "pragma solidity ^0.4.24;\n\n\nimport \"./erc20.sol\";\nimport \"./safemath.sol\";\nimport \"./ownable.sol\";\n\ncontract BidderFactory is Ownable {\n\n    using SafeMath for uint256;  \n\n    mapping (uint => uint) saleToBidCount;\n    mapping (address => uint) public userToCoin;\n\n    uint powerCoinFee = 0.00001 ether;\n\n    struct Bid {\n        uint amount;\n        uint saleId;\n        address bidder;\n        uint timestamp;\n        bool exists;\n    }\n    Bid[] public bids;\n\n    function getMyCoin() external view returns(uint) {\n       return userToCoin[msg.sender]; \n    }\n\n    function setPowerCoinFee(uint _fee) public {\n        powerCoinFee = _fee;\n    }\n\n    function _revertBidToOthers (address _owner, uint _saleId ) internal view  {\n        for (uint i = 0; i < bids.length; i++) {\n          if (bids[i].saleId == _saleId && bids[i].bidder != _owner) {\n                userToCoin[msg.sender].add(bids[i].amount);\n          }\n        }\n    }\n\n    function placeBid (uint _saleId, uint _amount) public {\n        // bids.push(Bid(_amount, _saleId, msg.sender, uint(now), true));\n        saleToBidCount[_saleId]++;\n        userToCoin[msg.sender] = userToCoin[msg.sender] - _amount;\n    }\n\n    function withdraw() external onlyOwner {\n        owner.transfer(this.balance);\n    }\n\n    function buyCoin(uint _coinCount) external payable {\n        require(msg.value == _coinCount * powerCoinFee);\n        userToCoin[msg.sender] = userToCoin[msg.sender] + _coinCount;\n    }\n\n    function getBidById(uint _indexId) external view returns(uint coins, address bidder, uint time)\n    {\n        return (bids[_indexId].amount, \n          bids[_indexId].bidder, \n          bids[_indexId].timestamp \n        );\n    }\n\n    function getBidsBySales(uint _saleId) external view returns(uint[]) {\n        uint[] memory result = new uint[](saleToBidCount[_saleId]);\n        uint counter = 0;\n        for (uint i = 0; i < bids.length; i++) {\n          if (bids[i].saleId == _saleId) {\n            result[counter] = i;\n            counter++;\n          }\n        }\n        return result;\n  }\n    \n}\n\n",
  "sourcePath": "/home/athulnath/workspace/blockchain/tradding-system/contracts/bidderFactory.sol",
  "compiler": {
    "name": "solc",
    "version": "0.4.24+commit.e67f0147.Emscripten.clang"
  },
  "schemaVersion": "2.0.1",
  "updatedAt": "2018-10-06T23:24:26.958Z"
}