{
  "contractName": "BidderFactory",
  "abi": [
    {
      "constant": true,
      "inputs": [
        {
          "name": "",
          "type": "uint256"
        }
      ],
      "name": "bids",
      "outputs": [
        {
          "name": "amount",
          "type": "uint256"
        },
        {
          "name": "saleId",
          "type": "uint256"
        },
        {
          "name": "bidder",
          "type": "address"
        },
        {
          "name": "timestamp",
          "type": "uint256"
        },
        {
          "name": "exists",
          "type": "bool"
        }
      ],
      "payable": false,
      "stateMutability": "view",
      "type": "function"
    },
    {
      "constant": true,
      "inputs": [],
      "name": "owner",
      "outputs": [
        {
          "name": "",
          "type": "address"
        }
      ],
      "payable": false,
      "stateMutability": "view",
      "type": "function"
    },
    {
      "constant": false,
      "inputs": [
        {
          "name": "newOwner",
          "type": "address"
        }
      ],
      "name": "transferOwnership",
      "outputs": [],
      "payable": false,
      "stateMutability": "nonpayable",
      "type": "function"
    },
    {
      "anonymous": false,
      "inputs": [
        {
          "indexed": true,
          "name": "previousOwner",
          "type": "address"
        },
        {
          "indexed": true,
          "name": "newOwner",
          "type": "address"
        }
      ],
      "name": "OwnershipTransferred",
      "type": "event"
    },
    {
      "constant": false,
      "inputs": [
        {
          "name": "_fee",
          "type": "uint256"
        }
      ],
      "name": "setPowerCoinFee",
      "outputs": [],
      "payable": false,
      "stateMutability": "nonpayable",
      "type": "function"
    },
    {
      "constant": false,
      "inputs": [
        {
          "name": "_saleId",
          "type": "uint256"
        },
        {
          "name": "_amount",
          "type": "uint256"
        }
      ],
      "name": "placeBid",
      "outputs": [],
      "payable": false,
      "stateMutability": "nonpayable",
      "type": "function"
    },
    {
      "constant": false,
      "inputs": [],
      "name": "withdraw",
      "outputs": [],
      "payable": false,
      "stateMutability": "nonpayable",
      "type": "function"
    },
    {
      "constant": false,
      "inputs": [
        {
          "name": "_coinCount",
          "type": "uint256"
        }
      ],
      "name": "buyCoin",
      "outputs": [],
      "payable": true,
      "stateMutability": "payable",
      "type": "function"
    },
    {
      "constant": true,
      "inputs": [
        {
          "name": "_indexId",
          "type": "uint256"
        }
      ],
      "name": "getBidById",
      "outputs": [
        {
          "name": "",
          "type": "uint256"
        },
        {
          "name": "",
          "type": "address"
        },
        {
          "name": "",
          "type": "uint256"
        }
      ],
      "payable": false,
      "stateMutability": "view",
      "type": "function"
    },
    {
      "constant": true,
      "inputs": [
        {
          "name": "_saleId",
          "type": "uint256"
        }
      ],
      "name": "getBidsBySales",
      "outputs": [
        {
          "name": "",
          "type": "uint256[]"
        }
      ],
      "payable": false,
      "stateMutability": "view",
      "type": "function"
    }
  ],
  "bytecode": "0x60806040526509184e72a000600355336000806101000a81548173ffffffffffffffffffffffffffffffffffffffff021916908373ffffffffffffffffffffffffffffffffffffffff1602179055506109f38061005d6000396000f300608060405260043610610099576000357c0100000000000000000000000000000000000000000000000000000000900463ffffffff1680631e45fa7f1461009e5780632a51fdd3146100cb5780633ccfd60b1461014d5780634423c5f11461016457806357c90de5146101f1578063861061311461022857806387792574146102a35780638da5cb5b146102c3578063f2fde38b1461031a575b600080fd5b3480156100aa57600080fd5b506100c96004803603810190808035906020019092919050505061035d565b005b3480156100d757600080fd5b506100f660048036038101908080359060200190929190505050610367565b6040518080602001828103825283818151815260200191508051906020019060200280838360005b8381101561013957808201518184015260208101905061011e565b505050509050019250505060405180910390f35b34801561015957600080fd5b5061016261042e565b005b34801561017057600080fd5b5061018f6004803603810190808035906020019092919050505061050a565b604051808681526020018581526020018473ffffffffffffffffffffffffffffffffffffffff1673ffffffffffffffffffffffffffffffffffffffff168152602001838152602001821515151581526020019550505050505060405180910390f35b3480156101fd57600080fd5b50610226600480360381019080803590602001909291908035906020019092919050505061057c565b005b34801561023457600080fd5b506102536004803603810190808035906020019092919050505061071e565b604051808481526020018373ffffffffffffffffffffffffffffffffffffffff1673ffffffffffffffffffffffffffffffffffffffff168152602001828152602001935050505060405180910390f35b6102c1600480360381019080803590602001909291905050506107b3565b005b3480156102cf57600080fd5b506102d861084d565b604051808273ffffffffffffffffffffffffffffffffffffffff1673ffffffffffffffffffffffffffffffffffffffff16815260200191505060405180910390f35b34801561032657600080fd5b5061035b600480360381019080803573ffffffffffffffffffffffffffffffffffffffff169060200190929190505050610872565b005b8060038190555050565b60608060008060016000868152602001908152602001600020546040519080825280602002602001820160405280156103af5781602001602082028038833980820191505090505b50925060009150600090505b60048054905081101561042357846004828154811015156103d857fe5b9060005260206000209060050201600101541415610416578083838151811015156103ff57fe5b906020019060200201818152505081806001019250505b80806001019150506103bb565b829350505050919050565b6000809054906101000a900473ffffffffffffffffffffffffffffffffffffffff1673ffffffffffffffffffffffffffffffffffffffff163373ffffffffffffffffffffffffffffffffffffffff1614151561048957600080fd5b6000809054906101000a900473ffffffffffffffffffffffffffffffffffffffff1673ffffffffffffffffffffffffffffffffffffffff166108fc3073ffffffffffffffffffffffffffffffffffffffff16319081150290604051600060405180830381858888f19350505050158015610507573d6000803e3d6000fd5b50565b60048181548110151561051957fe5b90600052602060002090600502016000915090508060000154908060010154908060020160009054906101000a900473ffffffffffffffffffffffffffffffffffffffff16908060030154908060040160009054906101000a900460ff16905085565b600460a0604051908101604052808381526020018481526020013373ffffffffffffffffffffffffffffffffffffffff1681526020014281526020016001151581525090806001815401808255809150509060018203906000526020600020906005020160009091929091909150600082015181600001556020820151816001015560408201518160020160006101000a81548173ffffffffffffffffffffffffffffffffffffffff021916908373ffffffffffffffffffffffffffffffffffffffff1602179055506060820151816003015560808201518160040160006101000a81548160ff021916908315150217905550505050600160008381526020019081526020016000206000815480929190600101919050555080600260003373ffffffffffffffffffffffffffffffffffffffff1673ffffffffffffffffffffffffffffffffffffffff1681526020019081526020016000205403600260003373ffffffffffffffffffffffffffffffffffffffff1673ffffffffffffffffffffffffffffffffffffffff168152602001908152602001600020819055505050565b600080600060048481548110151561073257fe5b90600052602060002090600502016000015460048581548110151561075357fe5b906000526020600020906005020160020160009054906101000a900473ffffffffffffffffffffffffffffffffffffffff1660048681548110151561079457fe5b9060005260206000209060050201600301549250925092509193909250565b6003548102341415156107c557600080fd5b80600260003373ffffffffffffffffffffffffffffffffffffffff1673ffffffffffffffffffffffffffffffffffffffff1681526020019081526020016000205401600260003373ffffffffffffffffffffffffffffffffffffffff1673ffffffffffffffffffffffffffffffffffffffff1681526020019081526020016000208190555050565b6000809054906101000a900473ffffffffffffffffffffffffffffffffffffffff1681565b6000809054906101000a900473ffffffffffffffffffffffffffffffffffffffff1673ffffffffffffffffffffffffffffffffffffffff163373ffffffffffffffffffffffffffffffffffffffff161415156108cd57600080fd5b600073ffffffffffffffffffffffffffffffffffffffff168173ffffffffffffffffffffffffffffffffffffffff161415151561090957600080fd5b8073ffffffffffffffffffffffffffffffffffffffff166000809054906101000a900473ffffffffffffffffffffffffffffffffffffffff1673ffffffffffffffffffffffffffffffffffffffff167f8be0079c531659141344cd1fd0a4f28419497f9722a3daafe3b4186f6b6457e060405160405180910390a3806000806101000a81548173ffffffffffffffffffffffffffffffffffffffff021916908373ffffffffffffffffffffffffffffffffffffffff160217905550505600a165627a7a723058200f66c9fdf634522005c2c3db107c7ae8b6c146b17f16ee67ac2c7877043c9b210029",
  "source": "pragma solidity ^0.4.24;\n\n\nimport \"./erc20.sol\";\nimport \"./safemath.sol\";\nimport \"./ownable.sol\";\n\ncontract BidderFactory is Ownable {\n\n    using SafeMath for uint256;  \n\n    mapping (uint => uint) saleToBidCount;\n    mapping (address => uint) userToCoin;\n\n    uint powerCoinFee = 0.00001 ether;\n\n    struct Bid {\n        uint amount;\n        uint saleId;\n        address bidder;\n        uint timestamp;\n        bool exists;\n    }\n    Bid[] public bids;\n\n    function setPowerCoinFee(uint _fee) public {\n        powerCoinFee = _fee;\n    }\n\n    function _revertBidToOthers (address _owner, uint _saleId ) internal view  {\n        for (uint i = 0; i < bids.length; i++) {\n          if (bids[i].saleId == _saleId && bids[i].bidder != _owner) {\n                userToCoin[msg.sender].add(bids[i].amount);\n          }\n        }\n    }\n\n    function placeBid (uint _saleId, uint _amount) external  {\n        bids.push(Bid(_amount, _saleId, msg.sender, uint(now), true));\n        saleToBidCount[_saleId]++;\n        userToCoin[msg.sender] = userToCoin[msg.sender] - _amount;\n    }\n\n    function withdraw() external onlyOwner {\n        owner.transfer(this.balance);\n    }\n\n    function buyCoin(uint _coinCount) external payable {\n        require(msg.value == _coinCount * powerCoinFee);\n        userToCoin[msg.sender] = userToCoin[msg.sender] + _coinCount;\n    }\n\n    function getBidById(uint _indexId) external view returns(uint, address, uint)\n    {\n        return (bids[_indexId].amount, \n          bids[_indexId].bidder, \n          bids[_indexId].timestamp \n        );\n    }\n\n    function getBidsBySales(uint _saleId) external view returns(uint[]) {\n        uint[] memory result = new uint[](saleToBidCount[_saleId]);\n        uint counter = 0;\n        for (uint i = 0; i < bids.length; i++) {\n          if (bids[i].saleId == _saleId) {\n            result[counter] = i;\n            counter++;\n          }\n        }\n        return result;\n  }\n    \n}\n\n",
  "sourcePath": "/home/athulnath/workspace/blockchain/tradding-system/contracts/bidderFactory.sol",
  "compiler": {
    "name": "solc",
    "version": "0.4.24+commit.e67f0147.Emscripten.clang"
  },
  "schemaVersion": "2.0.1",
  "updatedAt": "2018-10-06T20:31:40.843Z"
}