{
  "contractName": "BidderFactory",
  "abi": [
    {
      "constant": true,
      "inputs": [
        {
          "name": "",
          "type": "uint256"
        }
      ],
      "name": "bids",
      "outputs": [
        {
          "name": "amount",
          "type": "uint256"
        },
        {
          "name": "saleId",
          "type": "uint256"
        },
        {
          "name": "bidder",
          "type": "address"
        },
        {
          "name": "timestamp",
          "type": "uint256"
        },
        {
          "name": "exists",
          "type": "bool"
        }
      ],
      "payable": false,
      "stateMutability": "view",
      "type": "function"
    },
    {
      "constant": false,
      "inputs": [
        {
          "name": "_fee",
          "type": "uint256"
        }
      ],
      "name": "setPowerCoinFee",
      "outputs": [],
      "payable": false,
      "stateMutability": "nonpayable",
      "type": "function"
    },
    {
      "constant": false,
      "inputs": [
        {
          "name": "_saleId",
          "type": "uint256"
        },
        {
          "name": "_amount",
          "type": "uint256"
        }
      ],
      "name": "placeBid",
      "outputs": [],
      "payable": false,
      "stateMutability": "nonpayable",
      "type": "function"
    },
    {
      "constant": false,
      "inputs": [
        {
          "name": "_coinCount",
          "type": "uint256"
        }
      ],
      "name": "buyCoin",
      "outputs": [],
      "payable": true,
      "stateMutability": "payable",
      "type": "function"
    },
    {
      "constant": true,
      "inputs": [
        {
          "name": "_indexId",
          "type": "uint256"
        }
      ],
      "name": "getBidById",
      "outputs": [
        {
          "name": "",
          "type": "uint256"
        },
        {
          "name": "",
          "type": "address"
        },
        {
          "name": "",
          "type": "uint256"
        }
      ],
      "payable": false,
      "stateMutability": "view",
      "type": "function"
    },
    {
      "constant": true,
      "inputs": [
        {
          "name": "_saleId",
          "type": "uint256"
        }
      ],
      "name": "getBidsBySales",
      "outputs": [
        {
          "name": "",
          "type": "uint256[]"
        }
      ],
      "payable": false,
      "stateMutability": "view",
      "type": "function"
    }
  ],
  "bytecode": "0x60806040526509184e72a00060025534801561001a57600080fd5b506106ec8061002a6000396000f300608060405260043610610078576000357c0100000000000000000000000000000000000000000000000000000000900463ffffffff1680631e45fa7f1461007d5780632a51fdd3146100aa5780634423c5f11461012c57806357c90de5146101b957806386106131146101f0578063877925741461026b575b600080fd5b34801561008957600080fd5b506100a86004803603810190808035906020019092919050505061028b565b005b3480156100b657600080fd5b506100d560048036038101908080359060200190929190505050610295565b6040518080602001828103825283818151815260200191508051906020019060200280838360005b838110156101185780820151818401526020810190506100fd565b505050509050019250505060405180910390f35b34801561013857600080fd5b506101576004803603810190808035906020019092919050505061035b565b604051808681526020018581526020018473ffffffffffffffffffffffffffffffffffffffff1673ffffffffffffffffffffffffffffffffffffffff168152602001838152602001821515151581526020019550505050505060405180910390f35b3480156101c557600080fd5b506101ee60048036038101908080359060200190929190803590602001909291905050506103cd565b005b3480156101fc57600080fd5b5061021b60048036038101908080359060200190929190505050610541565b604051808481526020018373ffffffffffffffffffffffffffffffffffffffff1673ffffffffffffffffffffffffffffffffffffffff168152602001828152602001935050505060405180910390f35b610289600480360381019080803590602001909291905050506105d6565b005b8060028190555050565b606080600080600080868152602001908152602001600020546040519080825280602002602001820160405280156102dc5781602001602082028038833980820191505090505b50925060009150600090505b600380549050811015610350578460038281548110151561030557fe5b90600052602060002090600502016001015414156103435780838381518110151561032c57fe5b906020019060200201818152505081806001019250505b80806001019150506102e8565b829350505050919050565b60038181548110151561036a57fe5b90600052602060002090600502016000915090508060000154908060010154908060020160009054906101000a900473ffffffffffffffffffffffffffffffffffffffff16908060030154908060040160009054906101000a900460ff16905085565b600360a0604051908101604052808381526020018481526020013373ffffffffffffffffffffffffffffffffffffffff1681526020014281526020016001151581525090806001815401808255809150509060018203906000526020600020906005020160009091929091909150600082015181600001556020820151816001015560408201518160020160006101000a81548173ffffffffffffffffffffffffffffffffffffffff021916908373ffffffffffffffffffffffffffffffffffffffff1602179055506060820151816003015560808201518160040160006101000a81548160ff0219169083151502179055505050506104e960016000808581526020019081526020016000205461064e90919063ffffffff16565b5061053c81600160003373ffffffffffffffffffffffffffffffffffffffff1673ffffffffffffffffffffffffffffffffffffffff1681526020019081526020016000205461066c90919063ffffffff16565b505050565b600080600060038481548110151561055557fe5b90600052602060002090600502016000015460038581548110151561057657fe5b906000526020600020906005020160020160009054906101000a900473ffffffffffffffffffffffffffffffffffffffff166003868154811015156105b757fe5b9060005260206000209060050201600301549250925092509193909250565b6105eb6002548261068590919063ffffffff16565b341415156105f857600080fd5b61064a81600160003373ffffffffffffffffffffffffffffffffffffffff1673ffffffffffffffffffffffffffffffffffffffff1681526020019081526020016000205461064e90919063ffffffff16565b5050565b600080828401905083811015151561066257fe5b8091505092915050565b600082821115151561067a57fe5b818303905092915050565b600080600084141561069a57600091506106b9565b82840290508284828115156106ab57fe5b041415156106b557fe5b8091505b50929150505600a165627a7a72305820c5d45e17fcbff411695643a01303d87b41f7966ad01f6364742ee50bfc0479a80029",
  "source": "pragma solidity ^0.4.24;\n\n\nimport \"./erc20.sol\";\nimport \"./safemath.sol\";\n\ncontract BidderFactory {\n\n    using SafeMath for uint256;  \n\n    mapping (uint => uint) saleToBidCount;\n    mapping (address => uint) userToCoin;\n\n    uint powerCoinFee = 0.00001 ether;\n\n    struct Bid {\n        uint amount;\n        uint saleId;\n        address bidder;\n        uint timestamp;\n        bool exists;\n    }\n    Bid[] public bids;\n\n    function setPowerCoinFee(uint _fee) public {\n        powerCoinFee = _fee;\n    }\n\n    function _revertBidToOthers (address _owner, uint _saleId ) internal view  {\n        for (uint i = 0; i < bids.length; i++) {\n          if (bids[i].saleId == _saleId && bids[i].bidder != _owner) {\n                userToCoin[msg.sender].add(bids[i].amount);\n          }\n        }\n    }\n\n    function placeBid (uint _saleId, uint _amount) external  {\n        bids.push(Bid(_amount, _saleId, msg.sender, uint(now), true));\n        saleToBidCount[_saleId].add(1);\n        userToCoin[msg.sender].sub(_amount);\n    }\n\n    function buyCoin(uint _coinCount) external payable {\n        require(msg.value == _coinCount.mul(powerCoinFee));\n        userToCoin[msg.sender].add(_coinCount);\n    }\n\n    function getBidById(uint _indexId) external view returns(uint, address, uint)\n    {\n        return (bids[_indexId].amount, \n          bids[_indexId].bidder, \n          bids[_indexId].timestamp \n        );\n    }\n\n    function getBidsBySales(uint _saleId) external view returns(uint[]) {\n        uint[] memory result = new uint[](saleToBidCount[_saleId]);\n        uint counter = 0;\n        for (uint i = 0; i < bids.length; i++) {\n          if (bids[i].saleId == _saleId) {\n            result[counter] = i;\n            counter++;\n          }\n        }\n        return result;\n  }\n    \n}\n\n",
  "sourcePath": "/home/athulnath/workspace/blockchain/tradding-system/contracts/bidderFactory.sol",
  "compiler": {
    "name": "solc",
    "version": "0.4.24+commit.e67f0147.Emscripten.clang"
  },
  "schemaVersion": "2.0.1",
  "updatedAt": "2018-10-06T17:08:08.160Z"
}