{
  "contractName": "BidderAccount",
  "abi": [
    {
      "constant": false,
      "inputs": [
        {
          "name": "_fee",
          "type": "uint256"
        }
      ],
      "name": "setPowerCoinFee",
      "outputs": [],
      "payable": false,
      "stateMutability": "nonpayable",
      "type": "function"
    },
    {
      "constant": true,
      "inputs": [
        {
          "name": "_saleId",
          "type": "uint256"
        }
      ],
      "name": "getBidsBySales",
      "outputs": [
        {
          "name": "",
          "type": "uint256[]"
        }
      ],
      "payable": false,
      "stateMutability": "view",
      "type": "function"
    },
    {
      "constant": false,
      "inputs": [],
      "name": "withdraw",
      "outputs": [],
      "payable": false,
      "stateMutability": "nonpayable",
      "type": "function"
    },
    {
      "constant": true,
      "inputs": [
        {
          "name": "",
          "type": "uint256"
        }
      ],
      "name": "bids",
      "outputs": [
        {
          "name": "amount",
          "type": "uint256"
        },
        {
          "name": "saleId",
          "type": "uint256"
        },
        {
          "name": "bidder",
          "type": "address"
        },
        {
          "name": "timestamp",
          "type": "uint256"
        },
        {
          "name": "exists",
          "type": "bool"
        }
      ],
      "payable": false,
      "stateMutability": "view",
      "type": "function"
    },
    {
      "constant": false,
      "inputs": [
        {
          "name": "_saleId",
          "type": "uint256"
        },
        {
          "name": "_amount",
          "type": "uint256"
        }
      ],
      "name": "placeBid",
      "outputs": [],
      "payable": false,
      "stateMutability": "nonpayable",
      "type": "function"
    },
    {
      "constant": true,
      "inputs": [
        {
          "name": "_indexId",
          "type": "uint256"
        }
      ],
      "name": "getBidById",
      "outputs": [
        {
          "name": "coins",
          "type": "uint256"
        },
        {
          "name": "bidder",
          "type": "address"
        },
        {
          "name": "time",
          "type": "uint256"
        }
      ],
      "payable": false,
      "stateMutability": "view",
      "type": "function"
    },
    {
      "constant": false,
      "inputs": [
        {
          "name": "_coinCount",
          "type": "uint256"
        }
      ],
      "name": "buyCoin",
      "outputs": [],
      "payable": true,
      "stateMutability": "payable",
      "type": "function"
    },
    {
      "constant": true,
      "inputs": [],
      "name": "owner",
      "outputs": [
        {
          "name": "",
          "type": "address"
        }
      ],
      "payable": false,
      "stateMutability": "view",
      "type": "function"
    },
    {
      "constant": false,
      "inputs": [
        {
          "name": "newOwner",
          "type": "address"
        }
      ],
      "name": "transferOwnership",
      "outputs": [],
      "payable": false,
      "stateMutability": "nonpayable",
      "type": "function"
    },
    {
      "anonymous": false,
      "inputs": [
        {
          "indexed": true,
          "name": "_from",
          "type": "address"
        },
        {
          "indexed": true,
          "name": "_to",
          "type": "address"
        },
        {
          "indexed": false,
          "name": "_value",
          "type": "uint256"
        }
      ],
      "name": "Transfer",
      "type": "event"
    },
    {
      "anonymous": false,
      "inputs": [
        {
          "indexed": true,
          "name": "_owner",
          "type": "address"
        },
        {
          "indexed": true,
          "name": "_spender",
          "type": "address"
        },
        {
          "indexed": false,
          "name": "_value",
          "type": "uint256"
        }
      ],
      "name": "Approval",
      "type": "event"
    },
    {
      "anonymous": false,
      "inputs": [
        {
          "indexed": true,
          "name": "previousOwner",
          "type": "address"
        },
        {
          "indexed": true,
          "name": "newOwner",
          "type": "address"
        }
      ],
      "name": "OwnershipTransferred",
      "type": "event"
    },
    {
      "constant": true,
      "inputs": [
        {
          "name": "_owner",
          "type": "address"
        },
        {
          "name": "_spender",
          "type": "address"
        }
      ],
      "name": "allowance",
      "outputs": [
        {
          "name": "remaining",
          "type": "uint256"
        }
      ],
      "payable": false,
      "stateMutability": "view",
      "type": "function"
    },
    {
      "constant": true,
      "inputs": [],
      "name": "totalSupply",
      "outputs": [
        {
          "name": "_totalSupply",
          "type": "uint256"
        }
      ],
      "payable": false,
      "stateMutability": "view",
      "type": "function"
    },
    {
      "constant": true,
      "inputs": [
        {
          "name": "addr",
          "type": "address"
        }
      ],
      "name": "balanceOf",
      "outputs": [
        {
          "name": "balance",
          "type": "uint256"
        }
      ],
      "payable": false,
      "stateMutability": "view",
      "type": "function"
    },
    {
      "constant": false,
      "inputs": [
        {
          "name": "_to",
          "type": "address"
        },
        {
          "name": "_bidId",
          "type": "uint256"
        }
      ],
      "name": "approveTransaction",
      "outputs": [
        {
          "name": "res",
          "type": "bool"
        }
      ],
      "payable": false,
      "stateMutability": "nonpayable",
      "type": "function"
    },
    {
      "constant": false,
      "inputs": [
        {
          "name": "_to",
          "type": "address"
        },
        {
          "name": "_value",
          "type": "uint256"
        }
      ],
      "name": "transfer",
      "outputs": [
        {
          "name": "success",
          "type": "bool"
        }
      ],
      "payable": false,
      "stateMutability": "nonpayable",
      "type": "function"
    },
    {
      "constant": false,
      "inputs": [
        {
          "name": "_spender",
          "type": "address"
        },
        {
          "name": "_value",
          "type": "uint256"
        }
      ],
      "name": "approve",
      "outputs": [
        {
          "name": "success",
          "type": "bool"
        }
      ],
      "payable": false,
      "stateMutability": "nonpayable",
      "type": "function"
    },
    {
      "constant": false,
      "inputs": [
        {
          "name": "_from",
          "type": "address"
        },
        {
          "name": "_to",
          "type": "address"
        },
        {
          "name": "_value",
          "type": "uint256"
        }
      ],
      "name": "transferFrom",
      "outputs": [
        {
          "name": "success",
          "type": "bool"
        }
      ],
      "payable": false,
      "stateMutability": "nonpayable",
      "type": "function"
    }
  ],
  "bytecode": "0x60806040526509184e72a000600355336000806101000a81548173ffffffffffffffffffffffffffffffffffffffff021916908373ffffffffffffffffffffffffffffffffffffffff1602179055506115d78061005d6000396000f3006080604052600436106100e6576000357c0100000000000000000000000000000000000000000000000000000000900463ffffffff168063095ea7b3146100eb57806318160ddd146101505780631e45fa7f1461017b57806323b872dd146101a85780632a51fdd31461022d5780633ccfd60b146102af5780634423c5f1146102c657806357c90de51461035357806365decc0b1461038a57806370a08231146103ef578063861061311461044657806387792574146104c15780638da5cb5b146104e1578063a9059cbb14610538578063dd62ed3e1461059d578063f2fde38b14610614575b600080fd5b3480156100f757600080fd5b50610136600480360381019080803573ffffffffffffffffffffffffffffffffffffffff16906020019092919080359060200190929190505050610657565b604051808215151515815260200191505060405180910390f35b34801561015c57600080fd5b506101656106c8565b6040518082815260200191505060405180910390f35b34801561018757600080fd5b506101a66004803603810190808035906020019092919050505061070f565b005b3480156101b457600080fd5b50610213600480360381019080803573ffffffffffffffffffffffffffffffffffffffff169060200190929190803573ffffffffffffffffffffffffffffffffffffffff16906020019092919080359060200190929190505050610719565b604051808215151515815260200191505060405180910390f35b34801561023957600080fd5b5061025860048036038101908080359060200190929190505050610936565b6040518080602001828103825283818151815260200191508051906020019060200280838360005b8381101561029b578082015181840152602081019050610280565b505050509050019250505060405180910390f35b3480156102bb57600080fd5b506102c46109fd565b005b3480156102d257600080fd5b506102f160048036038101908080359060200190929190505050610ad9565b604051808681526020018581526020018473ffffffffffffffffffffffffffffffffffffffff1673ffffffffffffffffffffffffffffffffffffffff168152602001838152602001821515151581526020019550505050505060405180910390f35b34801561035f57600080fd5b506103886004803603810190808035906020019092919080359060200190929190505050610b4b565b005b34801561039657600080fd5b506103d5600480360381019080803573ffffffffffffffffffffffffffffffffffffffff16906020019092919080359060200190929190505050610ced565b604051808215151515815260200191505060405180910390f35b3480156103fb57600080fd5b50610430600480360381019080803573ffffffffffffffffffffffffffffffffffffffff169060200190929190505050610ee3565b6040518082815260200191505060405180910390f35b34801561045257600080fd5b5061047160048036038101908080359060200190929190505050610f2c565b604051808481526020018373ffffffffffffffffffffffffffffffffffffffff1673ffffffffffffffffffffffffffffffffffffffff168152602001828152602001935050505060405180910390f35b6104df60048036038101908080359060200190929190505050610fc1565b005b3480156104ed57600080fd5b506104f661105b565b604051808273ffffffffffffffffffffffffffffffffffffffff1673ffffffffffffffffffffffffffffffffffffffff16815260200191505060405180910390f35b34801561054457600080fd5b50610583600480360381019080803573ffffffffffffffffffffffffffffffffffffffff16906020019092919080359060200190929190505050611080565b604051808215151515815260200191505060405180910390f35b3480156105a957600080fd5b506105fe600480360381019080803573ffffffffffffffffffffffffffffffffffffffff169060200190929190803573ffffffffffffffffffffffffffffffffffffffff16906020019092919050505061129c565b6040518082815260200191505060405180910390f35b34801561062057600080fd5b50610655600480360381019080803573ffffffffffffffffffffffffffffffffffffffff1690602001909291905050506112e6565b005b60008273ffffffffffffffffffffffffffffffffffffffff163373ffffffffffffffffffffffffffffffffffffffff167f8c5be1e5ebec7d5bd14f71427d1e84f3dd0314c0f7b2291e5b200ac8c7c3b925846040518082815260200191505060405180910390a36001905092915050565b6000600260003373ffffffffffffffffffffffffffffffffffffffff1673ffffffffffffffffffffffffffffffffffffffff16815260200190815260200160002054905090565b8060038190555050565b60008260008173ffffffffffffffffffffffffffffffffffffffff16141561074057600080fd5b84848480600260008573ffffffffffffffffffffffffffffffffffffffff1673ffffffffffffffffffffffffffffffffffffffff16815260200190815260200160002054101561078f57600080fd5b600260008373ffffffffffffffffffffffffffffffffffffffff1673ffffffffffffffffffffffffffffffffffffffff1681526020019081526020016000205481600260008573ffffffffffffffffffffffffffffffffffffffff1673ffffffffffffffffffffffffffffffffffffffff1681526020019081526020016000205401101561081c57600080fd5b61086e86600260003373ffffffffffffffffffffffffffffffffffffffff1673ffffffffffffffffffffffffffffffffffffffff1681526020019081526020016000205461143b90919063ffffffff16565b506108c186600260008a73ffffffffffffffffffffffffffffffffffffffff1673ffffffffffffffffffffffffffffffffffffffff1681526020019081526020016000205461145490919063ffffffff16565b508673ffffffffffffffffffffffffffffffffffffffff168873ffffffffffffffffffffffffffffffffffffffff167fddf252ad1be2c89b69c2b068fc378daa952ba7f163c4a11628f55a4df523b3ef886040518082815260200191505060405180910390a360019450505050509392505050565b606080600080600160008681526020019081526020016000205460405190808252806020026020018201604052801561097e5781602001602082028038833980820191505090505b50925060009150600090505b6004805490508110156109f257846004828154811015156109a757fe5b90600052602060002090600502016001015414156109e5578083838151811015156109ce57fe5b906020019060200201818152505081806001019250505b808060010191505061098a565b829350505050919050565b6000809054906101000a900473ffffffffffffffffffffffffffffffffffffffff1673ffffffffffffffffffffffffffffffffffffffff163373ffffffffffffffffffffffffffffffffffffffff16141515610a5857600080fd5b6000809054906101000a900473ffffffffffffffffffffffffffffffffffffffff1673ffffffffffffffffffffffffffffffffffffffff166108fc3073ffffffffffffffffffffffffffffffffffffffff16319081150290604051600060405180830381858888f19350505050158015610ad6573d6000803e3d6000fd5b50565b600481815481101515610ae857fe5b90600052602060002090600502016000915090508060000154908060010154908060020160009054906101000a900473ffffffffffffffffffffffffffffffffffffffff16908060030154908060040160009054906101000a900460ff16905085565b600460a0604051908101604052808381526020018481526020013373ffffffffffffffffffffffffffffffffffffffff1681526020014281526020016001151581525090806001815401808255809150509060018203906000526020600020906005020160009091929091909150600082015181600001556020820151816001015560408201518160020160006101000a81548173ffffffffffffffffffffffffffffffffffffffff021916908373ffffffffffffffffffffffffffffffffffffffff1602179055506060820151816003015560808201518160040160006101000a81548160ff021916908315150217905550505050600160008381526020019081526020016000206000815480929190600101919050555080600260003373ffffffffffffffffffffffffffffffffffffffff1673ffffffffffffffffffffffffffffffffffffffff1681526020019081526020016000205403600260003373ffffffffffffffffffffffffffffffffffffffff1673ffffffffffffffffffffffffffffffffffffffff168152602001908152602001600020819055505050565b60008260008173ffffffffffffffffffffffffffffffffffffffff161415610d1457600080fd5b600483815481101515610d2357fe5b906000526020600020906005020160040160009054906101000a900460ff161515610db6576040517f08c379a00000000000000000000000000000000000000000000000000000000081526004018080602001828103825260118152602001807f426964206973206e6f742065786973747300000000000000000000000000000081525060200191505060405180910390fd5b610e28600484815481101515610dc857fe5b906000526020600020906005020160000154600260008773ffffffffffffffffffffffffffffffffffffffff1673ffffffffffffffffffffffffffffffffffffffff1681526020019081526020016000205461145490919063ffffffff16565b50610e5384600485815481101515610e3c57fe5b906000526020600020906005020160010154611472565b8373ffffffffffffffffffffffffffffffffffffffff163373ffffffffffffffffffffffffffffffffffffffff167fddf252ad1be2c89b69c2b068fc378daa952ba7f163c4a11628f55a4df523b3ef600486815481101515610eb157fe5b9060005260206000209060050201600001546040518082815260200191505060405180910390a3600191505092915050565b6000600260008373ffffffffffffffffffffffffffffffffffffffff1673ffffffffffffffffffffffffffffffffffffffff168152602001908152602001600020549050919050565b6000806000600484815481101515610f4057fe5b906000526020600020906005020160000154600485815481101515610f6157fe5b906000526020600020906005020160020160009054906101000a900473ffffffffffffffffffffffffffffffffffffffff16600486815481101515610fa257fe5b9060005260206000209060050201600301549250925092509193909250565b600354810234141515610fd357600080fd5b80600260003373ffffffffffffffffffffffffffffffffffffffff1673ffffffffffffffffffffffffffffffffffffffff1681526020019081526020016000205401600260003373ffffffffffffffffffffffffffffffffffffffff1673ffffffffffffffffffffffffffffffffffffffff1681526020019081526020016000208190555050565b6000809054906101000a900473ffffffffffffffffffffffffffffffffffffffff1681565b60008260008173ffffffffffffffffffffffffffffffffffffffff1614156110a757600080fd5b33848480600260008573ffffffffffffffffffffffffffffffffffffffff1673ffffffffffffffffffffffffffffffffffffffff1681526020019081526020016000205410156110f657600080fd5b600260008373ffffffffffffffffffffffffffffffffffffffff1673ffffffffffffffffffffffffffffffffffffffff1681526020019081526020016000205481600260008573ffffffffffffffffffffffffffffffffffffffff1673ffffffffffffffffffffffffffffffffffffffff1681526020019081526020016000205401101561118357600080fd5b6111d586600260003373ffffffffffffffffffffffffffffffffffffffff1673ffffffffffffffffffffffffffffffffffffffff1681526020019081526020016000205461143b90919063ffffffff16565b5061122886600260008a73ffffffffffffffffffffffffffffffffffffffff1673ffffffffffffffffffffffffffffffffffffffff1681526020019081526020016000205461145490919063ffffffff16565b508673ffffffffffffffffffffffffffffffffffffffff163373ffffffffffffffffffffffffffffffffffffffff167fddf252ad1be2c89b69c2b068fc378daa952ba7f163c4a11628f55a4df523b3ef886040518082815260200191505060405180910390a3600194505050505092915050565b6000600260008473ffffffffffffffffffffffffffffffffffffffff1673ffffffffffffffffffffffffffffffffffffffff16815260200190815260200160002054905092915050565b6000809054906101000a900473ffffffffffffffffffffffffffffffffffffffff1673ffffffffffffffffffffffffffffffffffffffff163373ffffffffffffffffffffffffffffffffffffffff1614151561134157600080fd5b600073ffffffffffffffffffffffffffffffffffffffff168173ffffffffffffffffffffffffffffffffffffffff161415151561137d57600080fd5b8073ffffffffffffffffffffffffffffffffffffffff166000809054906101000a900473ffffffffffffffffffffffffffffffffffffffff1673ffffffffffffffffffffffffffffffffffffffff167f8be0079c531659141344cd1fd0a4f28419497f9722a3daafe3b4186f6b6457e060405160405180910390a3806000806101000a81548173ffffffffffffffffffffffffffffffffffffffff021916908373ffffffffffffffffffffffffffffffffffffffff16021790555050565b600082821115151561144957fe5b818303905092915050565b600080828401905083811015151561146857fe5b8091505092915050565b60008090505b6004805490508110156115a6578160048281548110151561149557fe5b90600052602060002090600502016001015414801561152057508273ffffffffffffffffffffffffffffffffffffffff166004828154811015156114d557fe5b906000526020600020906005020160020160009054906101000a900473ffffffffffffffffffffffffffffffffffffffff1673ffffffffffffffffffffffffffffffffffffffff1614155b156115995761159760048281548110151561153757fe5b906000526020600020906005020160000154600260003373ffffffffffffffffffffffffffffffffffffffff1673ffffffffffffffffffffffffffffffffffffffff1681526020019081526020016000205461145490919063ffffffff16565b505b8080600101915050611478565b5050505600a165627a7a723058203c2218d4db428f1eb9ba83ad9e923590ea5723c05df2d9c2bd64439deec985920029",
  "source": "pragma solidity ^0.4.24;\n\n\nimport \"./erc20.sol\";\nimport \"./safemath.sol\";\nimport \"./bidderFactory.sol\";\n\ncontract BidderAccount is BidderFactory, ERC20_Token {\n\tusing SafeMath for uint256;  \n\n\t/**\n     * Prevent an account from behing 0x0\n     * @param addr Address to check\n     */\n    modifier No0x(address addr) { \n        if (addr == 0x0) revert();\n        _; \n    }\n\n    /**\n     * A modifer to check validity of a balance for a transfer\n     * from an account to another.\n     * @param from  [description]\n     * @param to    [description]\n     * @param value [description]\n     */\n    modifier ValidBalance(address from, address to, uint256 value) { \n        if (userToCoin[from] < value) revert();                 // Check if the sender has enough\n        if (userToCoin[to] + value < userToCoin[to]) revert();  // Check for overflows\n        _; \n    }\n\n    /**\n     * Returns the amount which _spender is still allowed to withdraw from _owner\n     */\n    function allowance(address _owner, address _spender) public constant returns (uint256 remaining) {\n        return userToCoin[_owner];    \n    }\n\n    /**\n     * Returns the total amount of tokens\n     * @return total amount\n     */\n    function totalSupply() public constant returns(uint256 _totalSupply) {\n        return userToCoin[msg.sender];\n    }\n\n    /**\n     * Returns The balance of a given account\n     * @param addr Address of the account\n     * @return Balance\n     */\n    function balanceOf(address addr) public constant returns(uint256 balance) {\n        return userToCoin[addr];\n    }\n\n    function approveTransaction (address _to, uint _bidId) external No0x(_to) returns(bool res) {\n    \trequire(bids[_bidId].exists, \"Bid is not exists\");\n    \t\n    \tuserToCoin[_to].add(bids[_bidId].amount);     \n        _revertBidToOthers(_to, bids[_bidId].saleId);                             \n        emit Transfer(msg.sender, _to, bids[_bidId].amount);                   // Notify anyone listening that this transfer took place\n        return true;\n    }\n    \n\n    /**\n     * Send coins\n     * @param _to        The recipient of tokens\n     * @param _value     Amount of tokens to send \n     */\n     function transfer(address _to, uint256 _value) public No0x(_to) ValidBalance(msg.sender, _to, _value) \n     returns (bool success) {      \n        userToCoin[msg.sender].sub(_value);                      // Subtract from the sender\n        userToCoin[_to].add(_value);                                  \n        emit Transfer(msg.sender, _to, _value);                   // Notify anyone listening that this transfer took place\n        return true;\n    }\n\n    /**\n     * Allow another contract to spend some tokens in your behalf\n     * @param _spender     Account that can take some of your tokens\n     * @param _value       Max amount of tokens the _spender account can take\n     * @return {return}    Return true if the action succeeded\n     */\n    function approve(address _spender, uint256 _value) public returns (bool success) {\n        emit Approval(msg.sender, _spender, _value);\n        return true;\n    }  \n\n    /**\n     * A contract attempts to get the coins\n     * @param _from     Address holding the tokens to transfer\n     * @param _to       Account to send the coins to\n     * @param _value    How many tokens     \n     * @return {bool}   Whether the call was successful\n     */\n    function transferFrom(address _from, address _to, uint256 _value) public No0x (_to) ValidBalance(_from, _to, _value)\n    returns (bool success) {\n        userToCoin[msg.sender].sub(_value);                          // Subtract from the sender\n        userToCoin[_to].add(_value);                                 // Add the same to the recipient\n        emit Transfer(_from, _to, _value);\n        return true;\n    }\n\n}",
  "sourcePath": "/home/athulnath/workspace/blockchain/tradding-system/contracts/bidderAccount.sol",
  "compiler": {
    "name": "solc",
    "version": "0.4.24+commit.e67f0147.Emscripten.clang"
  },
  "schemaVersion": "2.0.1",
  "updatedAt": "2018-10-06T21:19:54.650Z"
}