{
  "contractName": "SellFactory",
  "abi": [
    {
      "constant": true,
      "inputs": [
        {
          "name": "",
          "type": "uint256"
        }
      ],
      "name": "sales",
      "outputs": [
        {
          "name": "saleType",
          "type": "string"
        },
        {
          "name": "units",
          "type": "uint256"
        },
        {
          "name": "location",
          "type": "string"
        },
        {
          "name": "expetedDeliveryDate",
          "type": "string"
        }
      ],
      "payable": false,
      "stateMutability": "view",
      "type": "function"
    },
    {
      "constant": true,
      "inputs": [
        {
          "name": "",
          "type": "uint256"
        }
      ],
      "name": "saleToOwner",
      "outputs": [
        {
          "name": "",
          "type": "address"
        }
      ],
      "payable": false,
      "stateMutability": "view",
      "type": "function"
    },
    {
      "constant": false,
      "inputs": [
        {
          "name": "_saleType",
          "type": "string"
        },
        {
          "name": "_units",
          "type": "uint256"
        },
        {
          "name": "_location",
          "type": "string"
        },
        {
          "name": "_expectedTime",
          "type": "string"
        }
      ],
      "name": "createSale",
      "outputs": [],
      "payable": false,
      "stateMutability": "nonpayable",
      "type": "function"
    },
    {
      "constant": true,
      "inputs": [],
      "name": "getSalesCount",
      "outputs": [
        {
          "name": "",
          "type": "uint256"
        }
      ],
      "payable": false,
      "stateMutability": "view",
      "type": "function"
    },
    {
      "constant": true,
      "inputs": [
        {
          "name": "_indexId",
          "type": "uint256"
        }
      ],
      "name": "getSale",
      "outputs": [
        {
          "name": "saleType",
          "type": "string"
        },
        {
          "name": "units",
          "type": "uint256"
        },
        {
          "name": "location",
          "type": "string"
        },
        {
          "name": "expetedDeliveryDate",
          "type": "string"
        }
      ],
      "payable": false,
      "stateMutability": "view",
      "type": "function"
    }
  ],
  "bytecode": "0x608060405234801561001057600080fd5b50610bf6806100206000396000f30060806040526004361061006d576000357c0100000000000000000000000000000000000000000000000000000000900463ffffffff1680631216524114610072578063b5f522f714610171578063bd2a16e1146102f6578063d8f6d59614610363578063dd8027db146104e8575b600080fd5b34801561007e57600080fd5b5061016f600480360381019080803590602001908201803590602001908080601f016020809104026020016040519081016040528093929190818152602001838380828437820191505050505050919291929080359060200190929190803590602001908201803590602001908080601f0160208091040260200160405190810160405280939291908181526020018383808284378201915050505050509192919290803590602001908201803590602001908080601f0160208091040260200160405190810160405280939291908181526020018383808284378201915050505050509192919290505050610513565b005b34801561017d57600080fd5b5061019c60048036038101908080359060200190929190505050610674565b60405180806020018581526020018060200180602001848103845288818151815260200191508051906020019080838360005b838110156101ea5780820151818401526020810190506101cf565b50505050905090810190601f1680156102175780820380516001836020036101000a031916815260200191505b50848103835286818151815260200191508051906020019080838360005b83811015610250578082015181840152602081019050610235565b50505050905090810190601f16801561027d5780820380516001836020036101000a031916815260200191505b50848103825285818151815260200191508051906020019080838360005b838110156102b657808201518184015260208101905061029b565b50505050905090810190601f1680156102e35780820380516001836020036101000a031916815260200191505b5097505050505050505060405180910390f35b34801561030257600080fd5b506103216004803603810190808035906020019092919050505061087b565b604051808273ffffffffffffffffffffffffffffffffffffffff1673ffffffffffffffffffffffffffffffffffffffff16815260200191505060405180910390f35b34801561036f57600080fd5b5061038e600480360381019080803590602001909291905050506108ae565b60405180806020018581526020018060200180602001848103845288818151815260200191508051906020019080838360005b838110156103dc5780820151818401526020810190506103c1565b50505050905090810190601f1680156104095780820380516001836020036101000a031916815260200191505b50848103835286818151815260200191508051906020019080838360005b83811015610442578082015181840152602081019050610427565b50505050905090810190601f16801561046f5780820380516001836020036101000a031916815260200191505b50848103825285818151815260200191508051906020019080838360005b838110156104a857808201518184015260208101905061048d565b50505050905090810190601f1680156104d55780820380516001836020036101000a031916815260200191505b5097505050505050505060405180910390f35b3480156104f457600080fd5b506104fd610b19565b6040518082815260200191505060405180910390f35b60006001600060806040519081016040528088815260200187815260200186815260200185815250908060018154018082558091505090600182039060005260206000209060040201600090919290919091506000820151816000019080519060200190610582929190610b25565b506020820151816001015560408201518160020190805190602001906105a9929190610b25565b5060608201518160030190805190602001906105c6929190610b25565b505050039050336001600083815260200190815260200160002060006101000a81548173ffffffffffffffffffffffffffffffffffffffff021916908373ffffffffffffffffffffffffffffffffffffffff160217905550600260003373ffffffffffffffffffffffffffffffffffffffff1673ffffffffffffffffffffffffffffffffffffffff168152602001908152602001600020600081548092919060010191905055505050505050565b60008181548110151561068357fe5b9060005260206000209060040201600091509050806000018054600181600116156101000203166002900480601f01602080910402602001604051908101604052809291908181526020018280546001816001161561010002031660029004801561072f5780601f106107045761010080835404028352916020019161072f565b820191906000526020600020905b81548152906001019060200180831161071257829003601f168201915b505050505090806001015490806002018054600181600116156101000203166002900480601f0160208091040260200160405190810160405280929190818152602001828054600181600116156101000203166002900480156107d35780601f106107a8576101008083540402835291602001916107d3565b820191906000526020600020905b8154815290600101906020018083116107b657829003601f168201915b505050505090806003018054600181600116156101000203166002900480601f0160208091040260200160405190810160405280929190818152602001828054600181600116156101000203166002900480156108715780601f1061084657610100808354040283529160200191610871565b820191906000526020600020905b81548152906001019060200180831161085457829003601f168201915b5050505050905084565b60016020528060005260406000206000915054906101000a900473ffffffffffffffffffffffffffffffffffffffff1681565b606060006060806000858154811015156108c457fe5b90600052602060002090600402016000016000868154811015156108e457fe5b90600052602060002090600402016001015460008781548110151561090557fe5b906000526020600020906004020160020160008881548110151561092557fe5b9060005260206000209060040201600301838054600181600116156101000203166002900480601f0160208091040260200160405190810160405280929190818152602001828054600181600116156101000203166002900480156109cb5780601f106109a0576101008083540402835291602001916109cb565b820191906000526020600020905b8154815290600101906020018083116109ae57829003601f168201915b50505050509350818054600181600116156101000203166002900480601f016020809104026020016040519081016040528092919081815260200182805460018160011615610100020316600290048015610a675780601f10610a3c57610100808354040283529160200191610a67565b820191906000526020600020905b815481529060010190602001808311610a4a57829003601f168201915b50505050509150808054600181600116156101000203166002900480601f016020809104026020016040519081016040528092919081815260200182805460018160011615610100020316600290048015610b035780601f10610ad857610100808354040283529160200191610b03565b820191906000526020600020905b815481529060010190602001808311610ae657829003601f168201915b5050505050905093509350935093509193509193565b60008080549050905090565b828054600181600116156101000203166002900490600052602060002090601f016020900481019282601f10610b6657805160ff1916838001178555610b94565b82800160010185558215610b94579182015b82811115610b93578251825591602001919060010190610b78565b5b509050610ba19190610ba5565b5090565b610bc791905b80821115610bc3576000816000905550600101610bab565b5090565b905600a165627a7a723058201cce3d4affc00add20da71a80dd536fcb913b139215619a1f3c6fe727ce1b5670029",
  "source": "pragma solidity ^0.4.24;\n\ncontract SellFactory {\n\n  struct  Sale {\n      string saleType;\n      uint units;\n      string location;\n      string expetedDeliveryDate;\n  }\n\n  Sale[] public sales;\n  mapping (uint => address) public saleToOwner;\n  mapping (address => uint) ownerSaleCount;\n\n\n  function createSale(string _saleType, uint _units, string _location, string _expectedTime) public {\n    uint saleId = sales.push(Sale(_saleType, _units,  _location, _expectedTime)) - 1;\n    saleToOwner[saleId] = msg.sender;\n    ownerSaleCount[msg.sender]++;\n  }\n\n  function getSalesCount() public constant returns(uint) {\n    return sales.length;\n  }\n\n  function getSale(uint _indexId) public view returns(string saleType, uint units, string location, string expetedDeliveryDate) {\n    return (sales[_indexId].saleType, \n      sales[_indexId].units, \n      sales[_indexId].location, \n      sales[_indexId].expetedDeliveryDate);\n  }\n}\n",
  "sourcePath": "/home/athulnath/workspace/blockchain/tradding-system/contracts/SellFactory.sol",
  "compiler": {
    "name": "solc",
    "version": "0.4.24+commit.e67f0147.Emscripten.clang"
  },
  "schemaVersion": "2.0.1",
  "updatedAt": "2018-10-06T08:24:10.057Z"
}