{
  "contractName": "SellFactory",
  "abi": [
    {
      "constant": true,
      "inputs": [
        {
          "name": "",
          "type": "address"
        }
      ],
      "name": "ownerToUnits",
      "outputs": [
        {
          "name": "",
          "type": "uint256"
        }
      ],
      "payable": false,
      "stateMutability": "view",
      "type": "function"
    },
    {
      "constant": true,
      "inputs": [
        {
          "name": "",
          "type": "uint256"
        },
        {
          "name": "",
          "type": "address"
        }
      ],
      "name": "bidding",
      "outputs": [
        {
          "name": "",
          "type": "uint256"
        }
      ],
      "payable": false,
      "stateMutability": "view",
      "type": "function"
    },
    {
      "constant": true,
      "inputs": [
        {
          "name": "",
          "type": "uint256"
        }
      ],
      "name": "sales",
      "outputs": [
        {
          "name": "saleType",
          "type": "string"
        },
        {
          "name": "units",
          "type": "uint256"
        },
        {
          "name": "location",
          "type": "string"
        },
        {
          "name": "expetedDeliveryDate",
          "type": "string"
        }
      ],
      "payable": false,
      "stateMutability": "view",
      "type": "function"
    },
    {
      "constant": true,
      "inputs": [
        {
          "name": "",
          "type": "uint256"
        }
      ],
      "name": "saleToOwner",
      "outputs": [
        {
          "name": "",
          "type": "address"
        }
      ],
      "payable": false,
      "stateMutability": "view",
      "type": "function"
    },
    {
      "constant": true,
      "inputs": [
        {
          "name": "",
          "type": "address"
        },
        {
          "name": "",
          "type": "address"
        }
      ],
      "name": "biddingApproval",
      "outputs": [
        {
          "name": "",
          "type": "uint256"
        }
      ],
      "payable": false,
      "stateMutability": "view",
      "type": "function"
    },
    {
      "anonymous": false,
      "inputs": [
        {
          "indexed": true,
          "name": "_from",
          "type": "address"
        },
        {
          "indexed": true,
          "name": "_to",
          "type": "address"
        },
        {
          "indexed": false,
          "name": "_value",
          "type": "uint256"
        }
      ],
      "name": "Transfer",
      "type": "event"
    },
    {
      "anonymous": false,
      "inputs": [
        {
          "indexed": true,
          "name": "_owner",
          "type": "address"
        },
        {
          "indexed": true,
          "name": "_spender",
          "type": "address"
        },
        {
          "indexed": false,
          "name": "_value",
          "type": "uint256"
        }
      ],
      "name": "Approval",
      "type": "event"
    },
    {
      "constant": false,
      "inputs": [
        {
          "name": "_saleType",
          "type": "string"
        },
        {
          "name": "_units",
          "type": "uint256"
        },
        {
          "name": "_location",
          "type": "string"
        },
        {
          "name": "_expectedTime",
          "type": "string"
        }
      ],
      "name": "createSale",
      "outputs": [],
      "payable": false,
      "stateMutability": "nonpayable",
      "type": "function"
    },
    {
      "constant": true,
      "inputs": [],
      "name": "getSalesCount",
      "outputs": [
        {
          "name": "",
          "type": "uint256"
        }
      ],
      "payable": false,
      "stateMutability": "view",
      "type": "function"
    },
    {
      "constant": true,
      "inputs": [
        {
          "name": "_indexId",
          "type": "uint256"
        }
      ],
      "name": "getSale",
      "outputs": [
        {
          "name": "saleType",
          "type": "string"
        },
        {
          "name": "units",
          "type": "uint256"
        },
        {
          "name": "location",
          "type": "string"
        },
        {
          "name": "expetedDeliveryDate",
          "type": "string"
        }
      ],
      "payable": false,
      "stateMutability": "view",
      "type": "function"
    },
    {
      "constant": true,
      "inputs": [],
      "name": "totalSupply",
      "outputs": [
        {
          "name": "_totalSupply",
          "type": "uint256"
        }
      ],
      "payable": false,
      "stateMutability": "view",
      "type": "function"
    },
    {
      "constant": true,
      "inputs": [
        {
          "name": "addr",
          "type": "address"
        }
      ],
      "name": "balanceOf",
      "outputs": [
        {
          "name": "balance",
          "type": "uint256"
        }
      ],
      "payable": false,
      "stateMutability": "view",
      "type": "function"
    },
    {
      "constant": true,
      "inputs": [
        {
          "name": "_owner",
          "type": "address"
        },
        {
          "name": "_spender",
          "type": "address"
        }
      ],
      "name": "allowance",
      "outputs": [
        {
          "name": "remaining",
          "type": "uint256"
        }
      ],
      "payable": false,
      "stateMutability": "view",
      "type": "function"
    },
    {
      "constant": false,
      "inputs": [
        {
          "name": "_to",
          "type": "address"
        },
        {
          "name": "_value",
          "type": "uint256"
        }
      ],
      "name": "transfer",
      "outputs": [
        {
          "name": "success",
          "type": "bool"
        }
      ],
      "payable": false,
      "stateMutability": "nonpayable",
      "type": "function"
    },
    {
      "constant": false,
      "inputs": [
        {
          "name": "_spender",
          "type": "address"
        },
        {
          "name": "_value",
          "type": "uint256"
        }
      ],
      "name": "approve",
      "outputs": [
        {
          "name": "success",
          "type": "bool"
        }
      ],
      "payable": false,
      "stateMutability": "nonpayable",
      "type": "function"
    },
    {
      "constant": false,
      "inputs": [
        {
          "name": "_from",
          "type": "address"
        },
        {
          "name": "_to",
          "type": "address"
        },
        {
          "name": "_value",
          "type": "uint256"
        }
      ],
      "name": "transferFrom",
      "outputs": [
        {
          "name": "success",
          "type": "bool"
        }
      ],
      "payable": false,
      "stateMutability": "nonpayable",
      "type": "function"
    }
  ],
  "bytecode": "0x608060405234801561001057600080fd5b5061180f806100206000396000f3006080604052600436106100d0576000357c0100000000000000000000000000000000000000000000000000000000900463ffffffff168063095ea7b3146100d5578063121652411461013a57806318160ddd14610239578063211a39e61461026457806323b872dd146102bb57806370a082311461034057806371457b9214610397578063a9059cbb146103f8578063b5f522f71461045d578063bd2a16e1146105e2578063c32622841461064f578063d8f6d596146106c6578063dd62ed3e1461084b578063dd8027db146108c2575b600080fd5b3480156100e157600080fd5b50610120600480360381019080803573ffffffffffffffffffffffffffffffffffffffff169060200190929190803590602001909291905050506108ed565b604051808215151515815260200191505060405180910390f35b34801561014657600080fd5b50610237600480360381019080803590602001908201803590602001908080601f016020809104026020016040519081016040528093929190818152602001838380828437820191505050505050919291929080359060200190929190803590602001908201803590602001908080601f0160208091040260200160405190810160405280939291908181526020018383808284378201915050505050509192919290803590602001908201803590602001908080601f01602080910402602001604051908101604052809392919081815260200183838082843782019150505050505091929192905050506109df565b005b34801561024557600080fd5b5061024e610b98565b6040518082815260200191505060405180910390f35b34801561027057600080fd5b506102a5600480360381019080803573ffffffffffffffffffffffffffffffffffffffff169060200190929190505050610bdf565b6040518082815260200191505060405180910390f35b3480156102c757600080fd5b50610326600480360381019080803573ffffffffffffffffffffffffffffffffffffffff169060200190929190803573ffffffffffffffffffffffffffffffffffffffff16906020019092919080359060200190929190505050610bf7565b604051808215151515815260200191505060405180910390f35b34801561034c57600080fd5b50610381600480360381019080803573ffffffffffffffffffffffffffffffffffffffff169060200190929190505050610f20565b6040518082815260200191505060405180910390f35b3480156103a357600080fd5b506103e260048036038101908080359060200190929190803573ffffffffffffffffffffffffffffffffffffffff169060200190929190505050610f69565b6040518082815260200191505060405180910390f35b34801561040457600080fd5b50610443600480360381019080803573ffffffffffffffffffffffffffffffffffffffff16906020019092919080359060200190929190505050610f8e565b604051808215151515815260200191505060405180910390f35b34801561046957600080fd5b50610488600480360381019080803590602001909291905050506111aa565b60405180806020018581526020018060200180602001848103845288818151815260200191508051906020019080838360005b838110156104d65780820151818401526020810190506104bb565b50505050905090810190601f1680156105035780820380516001836020036101000a031916815260200191505b50848103835286818151815260200191508051906020019080838360005b8381101561053c578082015181840152602081019050610521565b50505050905090810190601f1680156105695780820380516001836020036101000a031916815260200191505b50848103825285818151815260200191508051906020019080838360005b838110156105a2578082015181840152602081019050610587565b50505050905090810190601f1680156105cf5780820380516001836020036101000a031916815260200191505b5097505050505050505060405180910390f35b3480156105ee57600080fd5b5061060d600480360381019080803590602001909291905050506113b1565b604051808273ffffffffffffffffffffffffffffffffffffffff1673ffffffffffffffffffffffffffffffffffffffff16815260200191505060405180910390f35b34801561065b57600080fd5b506106b0600480360381019080803573ffffffffffffffffffffffffffffffffffffffff169060200190929190803573ffffffffffffffffffffffffffffffffffffffff1690602001909291905050506113e4565b6040518082815260200191505060405180910390f35b3480156106d257600080fd5b506106f160048036038101908080359060200190929190505050611409565b60405180806020018581526020018060200180602001848103845288818151815260200191508051906020019080838360005b8381101561073f578082015181840152602081019050610724565b50505050905090810190601f16801561076c5780820380516001836020036101000a031916815260200191505b50848103835286818151815260200191508051906020019080838360005b838110156107a557808201518184015260208101905061078a565b50505050905090810190601f1680156107d25780820380516001836020036101000a031916815260200191505b50848103825285818151815260200191508051906020019080838360005b8381101561080b5780820151818401526020810190506107f0565b50505050905090810190601f1680156108385780820380516001836020036101000a031916815260200191505b5097505050505050505060405180910390f35b34801561085757600080fd5b506108ac600480360381019080803573ffffffffffffffffffffffffffffffffffffffff169060200190929190803573ffffffffffffffffffffffffffffffffffffffff169060200190929190505050611674565b6040518082815260200191505060405180910390f35b3480156108ce57600080fd5b506108d76116fb565b6040518082815260200191505060405180910390f35b600081600460003373ffffffffffffffffffffffffffffffffffffffff1673ffffffffffffffffffffffffffffffffffffffff16815260200190815260200160002060008573ffffffffffffffffffffffffffffffffffffffff1673ffffffffffffffffffffffffffffffffffffffff168152602001908152602001600020819055508273ffffffffffffffffffffffffffffffffffffffff163373ffffffffffffffffffffffffffffffffffffffff167f8c5be1e5ebec7d5bd14f71427d1e84f3dd0314c0f7b2291e5b200ac8c7c3b925846040518082815260200191505060405180910390a36001905092915050565b60006001600060806040519081016040528088815260200187815260200186815260200185815250908060018154018082558091505090600182039060005260206000209060040201600090919290919091506000820151816000019080519060200190610a4e92919061173e565b50602082015181600101556040820151816002019080519060200190610a7592919061173e565b506060820151816003019080519060200190610a9292919061173e565b505050039050336001600083815260200190815260200160002060006101000a81548173ffffffffffffffffffffffffffffffffffffffff021916908373ffffffffffffffffffffffffffffffffffffffff160217905550610b3d6001600360003373ffffffffffffffffffffffffffffffffffffffff1673ffffffffffffffffffffffffffffffffffffffff1681526020019081526020016000205461170790919063ffffffff16565b50610b9084600260003373ffffffffffffffffffffffffffffffffffffffff1673ffffffffffffffffffffffffffffffffffffffff1681526020019081526020016000205461170790919063ffffffff16565b505050505050565b6000600260003373ffffffffffffffffffffffffffffffffffffffff1673ffffffffffffffffffffffffffffffffffffffff16815260200190815260200160002054905090565b60026020528060005260406000206000915090505481565b60008260008173ffffffffffffffffffffffffffffffffffffffff161415610c1e57600080fd5b84848480600260008573ffffffffffffffffffffffffffffffffffffffff1673ffffffffffffffffffffffffffffffffffffffff168152602001908152602001600020541015610c6d57600080fd5b600260008373ffffffffffffffffffffffffffffffffffffffff1673ffffffffffffffffffffffffffffffffffffffff1681526020019081526020016000205481600260008573ffffffffffffffffffffffffffffffffffffffff1673ffffffffffffffffffffffffffffffffffffffff16815260200190815260200160002054011015610cfa57600080fd5b6000600460008a73ffffffffffffffffffffffffffffffffffffffff1673ffffffffffffffffffffffffffffffffffffffff16815260200190815260200160002060003373ffffffffffffffffffffffffffffffffffffffff1673ffffffffffffffffffffffffffffffffffffffff168152602001908152602001600020541115610d8457600080fd5b610dd686600260003373ffffffffffffffffffffffffffffffffffffffff1673ffffffffffffffffffffffffffffffffffffffff1681526020019081526020016000205461172590919063ffffffff16565b50610e2986600260008a73ffffffffffffffffffffffffffffffffffffffff1673ffffffffffffffffffffffffffffffffffffffff1681526020019081526020016000205461170790919063ffffffff16565b506000600460008a73ffffffffffffffffffffffffffffffffffffffff1673ffffffffffffffffffffffffffffffffffffffff16815260200190815260200160002060003373ffffffffffffffffffffffffffffffffffffffff1673ffffffffffffffffffffffffffffffffffffffff168152602001908152602001600020819055508673ffffffffffffffffffffffffffffffffffffffff168873ffffffffffffffffffffffffffffffffffffffff167fddf252ad1be2c89b69c2b068fc378daa952ba7f163c4a11628f55a4df523b3ef886040518082815260200191505060405180910390a360019450505050509392505050565b6000600260008373ffffffffffffffffffffffffffffffffffffffff1673ffffffffffffffffffffffffffffffffffffffff168152602001908152602001600020549050919050565b6005602052816000526040600020602052806000526040600020600091509150505481565b60008260008173ffffffffffffffffffffffffffffffffffffffff161415610fb557600080fd5b33848480600260008573ffffffffffffffffffffffffffffffffffffffff1673ffffffffffffffffffffffffffffffffffffffff16815260200190815260200160002054101561100457600080fd5b600260008373ffffffffffffffffffffffffffffffffffffffff1673ffffffffffffffffffffffffffffffffffffffff1681526020019081526020016000205481600260008573ffffffffffffffffffffffffffffffffffffffff1673ffffffffffffffffffffffffffffffffffffffff1681526020019081526020016000205401101561109157600080fd5b6110e386600260003373ffffffffffffffffffffffffffffffffffffffff1673ffffffffffffffffffffffffffffffffffffffff1681526020019081526020016000205461172590919063ffffffff16565b5061113686600260008a73ffffffffffffffffffffffffffffffffffffffff1673ffffffffffffffffffffffffffffffffffffffff1681526020019081526020016000205461170790919063ffffffff16565b508673ffffffffffffffffffffffffffffffffffffffff163373ffffffffffffffffffffffffffffffffffffffff167fddf252ad1be2c89b69c2b068fc378daa952ba7f163c4a11628f55a4df523b3ef886040518082815260200191505060405180910390a3600194505050505092915050565b6000818154811015156111b957fe5b9060005260206000209060040201600091509050806000018054600181600116156101000203166002900480601f0160208091040260200160405190810160405280929190818152602001828054600181600116156101000203166002900480156112655780601f1061123a57610100808354040283529160200191611265565b820191906000526020600020905b81548152906001019060200180831161124857829003601f168201915b505050505090806001015490806002018054600181600116156101000203166002900480601f0160208091040260200160405190810160405280929190818152602001828054600181600116156101000203166002900480156113095780601f106112de57610100808354040283529160200191611309565b820191906000526020600020905b8154815290600101906020018083116112ec57829003601f168201915b505050505090806003018054600181600116156101000203166002900480601f0160208091040260200160405190810160405280929190818152602001828054600181600116156101000203166002900480156113a75780601f1061137c576101008083540402835291602001916113a7565b820191906000526020600020905b81548152906001019060200180831161138a57829003601f168201915b5050505050905084565b60016020528060005260406000206000915054906101000a900473ffffffffffffffffffffffffffffffffffffffff1681565b6004602052816000526040600020602052806000526040600020600091509150505481565b6060600060608060008581548110151561141f57fe5b906000526020600020906004020160000160008681548110151561143f57fe5b90600052602060002090600402016001015460008781548110151561146057fe5b906000526020600020906004020160020160008881548110151561148057fe5b9060005260206000209060040201600301838054600181600116156101000203166002900480601f0160208091040260200160405190810160405280929190818152602001828054600181600116156101000203166002900480156115265780601f106114fb57610100808354040283529160200191611526565b820191906000526020600020905b81548152906001019060200180831161150957829003601f168201915b50505050509350818054600181600116156101000203166002900480601f0160208091040260200160405190810160405280929190818152602001828054600181600116156101000203166002900480156115c25780601f10611597576101008083540402835291602001916115c2565b820191906000526020600020905b8154815290600101906020018083116115a557829003601f168201915b50505050509150808054600181600116156101000203166002900480601f01602080910402602001604051908101604052809291908181526020018280546001816001161561010002031660029004801561165e5780601f106116335761010080835404028352916020019161165e565b820191906000526020600020905b81548152906001019060200180831161164157829003601f168201915b5050505050905093509350935093509193509193565b6000600460008473ffffffffffffffffffffffffffffffffffffffff1673ffffffffffffffffffffffffffffffffffffffff16815260200190815260200160002060008373ffffffffffffffffffffffffffffffffffffffff1673ffffffffffffffffffffffffffffffffffffffff16815260200190815260200160002054905092915050565b60008080549050905090565b600080828401905083811015151561171b57fe5b8091505092915050565b600082821115151561173357fe5b818303905092915050565b828054600181600116156101000203166002900490600052602060002090601f016020900481019282601f1061177f57805160ff19168380011785556117ad565b828001600101855582156117ad579182015b828111156117ac578251825591602001919060010190611791565b5b5090506117ba91906117be565b5090565b6117e091905b808211156117dc5760008160009055506001016117c4565b5090565b905600a165627a7a723058202a506f40eb82ae482adbddc53a7d38d6208eefdf9f40e2c35c98000a845087300029",
  "source": "pragma solidity ^0.4.24;\n\n\nimport \"./erc20.sol\";\nimport \"./safemath.sol\";\n\ncontract SellFactory is ERC20_Token {\n\n  using SafeMath for uint256;  \n\n  struct  Sale {\n      string saleType;\n      uint units;\n      string location;\n      string expetedDeliveryDate;\n  }\n  \n  Sale[] public sales;\n  mapping (uint => address) public saleToOwner;\n  mapping (address => uint) public ownerToUnits;\n  mapping (address => uint) ownerSaleCount;\n  mapping (address => mapping (address => uint256)) public biddingApproval;\n  mapping (uint => mapping (address => uint256)) public bidding;\n\n\n  function createSale(string _saleType, uint _units, string _location, string _expectedTime) public {\n    uint saleId = sales.push(Sale(_saleType, _units,  _location, _expectedTime)) - 1;\n    saleToOwner[saleId] = msg.sender;\n    ownerSaleCount[msg.sender].add(1);\n    ownerToUnits[msg.sender].add(_units);\n  }\n\n  function getSalesCount() public constant returns(uint) {\n    return sales.length;\n  }\n\n  function getSale(uint _indexId) public view returns(string saleType, uint units, string location, string expetedDeliveryDate) {\n    return (sales[_indexId].saleType, \n      sales[_indexId].units, \n      sales[_indexId].location, \n      sales[_indexId].expetedDeliveryDate);\n  }\n    /**\n     * Prevent an account from behing 0x0\n     * @param addr Address to check\n     */\n    modifier No0x(address addr) { \n        if (addr == 0x0) revert();\n        _; \n    }\n\n    /**\n     * A modifer to check validity of a balance for a transfer\n     * from an account to another.\n     * @param from  [description]\n     * @param to    [description]\n     * @param value [description]\n     */\n    modifier ValidBalance(address from, address to, uint256 value) { \n        if (ownerToUnits[from] < value) revert();                 // Check if the sender has enough\n        if (ownerToUnits[to] + value < ownerToUnits[to]) revert();  // Check for overflows\n        _; \n    }\n\n    /**\n     * Returns the total amount of tokens\n     * @return total amount\n     */\n    function totalSupply() public constant returns(uint256 _totalSupply) {\n        return ownerToUnits[msg.sender];\n    }\n\n    /**\n     * Returns The balance of a given account\n     * @param addr Address of the account\n     * @return Balance\n     */\n    function balanceOf(address addr) public constant returns(uint256 balance) {\n        return ownerToUnits[addr];\n    }\n    \n    /**\n     * Returns the amount which _spender is still allowed to withdraw from _owner\n     */\n    function allowance(address _owner, address _spender) public constant returns (uint256 remaining) {\n        return biddingApproval[_owner][_spender];    \n    }\n\n    /**\n     * Send coins\n     * @param _to        The recipient of tokens\n     * @param _value     Amount of tokens to send \n     */\n     function transfer(address _to, uint256 _value) public No0x(_to) ValidBalance(msg.sender, _to, _value) \n     returns (bool success) {                        \n        ownerToUnits[msg.sender].sub(_value);                      // Subtract from the sender\n        ownerToUnits[_to].add(_value);                             // Add the same to the recipient\n        emit Transfer(msg.sender, _to, _value);                   // Notify anyone listening that this transfer took place\n        return true;\n    }\n\n    /**\n     * Allow another contract to spend some tokens in your behalf\n     * @param _spender     Account that can take some of your tokens\n     * @param _value       Max amount of tokens the _spender account can take\n     * @return {return}    Return true if the action succeeded\n     */\n    function approve(address _spender, uint256 _value) public returns (bool success) {\n        biddingApproval[msg.sender][_spender] = _value;\n        emit Approval(msg.sender, _spender, _value);\n        return true;\n    }  \n\n    /**\n     * A contract attempts to get the coins\n     * @param _from     Address holding the tokens to transfer\n     * @param _to       Account to send the coins to\n     * @param _value    How many tokens     \n     * @return {bool}   Whether the call was successful\n     */\n    function transferFrom(address _from, address _to, uint256 _value) public No0x (_to) ValidBalance(_from, _to, _value)\n    returns (bool success) {\n        if (biddingApproval[_from][msg.sender] > 0) revert();     // Check allowance\n        ownerToUnits[msg.sender].sub(_value);                          // Subtract from the sender\n        ownerToUnits[_to].add(_value);                                 // Add the same to the recipient\n        biddingApproval[_from][msg.sender] = 0;\n        emit Transfer(_from, _to, _value);\n        return true;\n    }\n}\n",
  "sourcePath": "/home/akrk/tradding-system/contracts/SellFactory.sol",
  "compiler": {
    "name": "solc",
    "version": "0.4.24+commit.e67f0147.Emscripten.clang"
  },
  "schemaVersion": "2.0.1",
  "updatedAt": "2018-10-06T13:29:52.451Z"
}